:100000000C9403050C942B050C942B050C942B05D8
:100010000C942B050C942B050C942B050C942B05A0
:100020000C942B050C942B050C942B050C942B0590
:100030000C942B050C942B050C942B050C942B0580
:100040000C94F1150C942B050C94AB160C942B0509
:100050000C942B050C942B050C942B050C942B0560
:100060000C942B050C942B0500000507207F000045
:1000700000000000005F00000007000700147F146C
:100080007F14242A7F2A12231308646236495522DA
:10009000500005030000001C2241000041221C000A
:1000A000082A1C2A0808083E0808005030000008EA
:1000B00008080808006060000020100804023E5193
:1000C00049453E00427F4000426151494621414539
:1000D0004B311814127F1027454545393C4A494990
:1000E0003001710905033649494936064949291E37
:1000F0000036360000005636000000081422411475
:100100001414141441221408000201510906324942
:1001100079413E7E1111117E7F494949363E414168
:1001200041227F4141221C7F494949417F09090100
:10013000013E414151327F0808087F00417F410064
:100140002040413F017F081422417F404040407FD2
:100150000204027F7F0408107F3E4141413E7F0937
:100160000909063E4151215E7F0919294646494940
:10017000493101017F01013F4040403F1F204020A5
:100180001F7F2018207F631408146303047804037E
:10019000615149454300007F41410204081020415C
:1001A000417F000004020102044040404040000141
:1001B00002040020545454787F484444383844445E
:1001C0004420384444487F3854545418087E090168
:1001D00002081454543C7F0804047800447D400015
:1001E0002040443D00007F10284400417F40007CB7
:1001F000041804787C0804047838444444387C1497
:10020000141408081414187C7C0804040848545476
:100210005420043F4440203C4040207C1C2040208F
:100220001C3C4030403C44281028440C5050503C6A
:100230004464544C44000836410000007F00000034
:100240004136080008082A1C08081C2A0808402013
:100250000000C0201008C88808081020C000000056
:100260000000000000C0F0F8F8F8F0C00000004006
:10027000700C30C000C0300C30C000C0300888485E
:100280002828F820204080402010209818C0C00066
:100290000007182040809F8F8782402018070000A9
:1002A000000080F0FEFFFF1F031FFFFFFCF0800037
:1002B0000000000003000000000001001C638046F5
:1002C0004A52E3524A4680631C02010001000000CA
:1002D00000C0300804E2222222E2040830C00000FC
:1002E000E0FCFFFF7F7F78787878787F7FFFFFFCE6
:1002F000E00000000000000000000000000000011D
:100300000202FF02020100000000000000000000E5
:100310000001060810232222222310080601183F9C
:100320003F3F0F01000000000000000000010F3FF0
:100330003F3F180000000000000000000000000225
:100340000A0A2B0A0A020000000000000000000058
:100350001E6C0A0E206000010308070A080103034F
:10036000050701040104060306060706060606063D
:100370000101060606060D09070808070709070117
:10038000050807090709070908070707090D0809EC
:100390000802040205080206060506060406060110
:1003A00002060109060606060405040607090607F3
:1003B000060301030707FE141E001E0000009090B4
:1003C000F89690F89690001C00001C00000018247D
:1003D00022FF4242840810103C1008041C22221CF8
:1003E000C0308C4240800000100C00000C10100C3B
:1003F000805C2262920C80000C101010100C08100F
:100400001E00F00C021C6080020CF080601C0414C2
:100410000E14040000000000404040F8404040003E
:1004200000000C0000000070808080800000000050
:10043000001000C0380618040000FC02020202FC92
:100440000C101010100C0804FE00001C0C0202829C
:10045000423C1018141010100C02222222DC0C1046
:100460001010100C8040300804FE00040404040442
:100470001C043816121212E20C1010101804F84462
:10048000222222C40C101010100C020202E21A06E2
:1004900000001C000000DC22222222DC0C101010C4
:1004A000100C3C42424222FC0810101008040810B4
:1004B000087040A0A01010080000000404089090EC
:1004C00090909090000000000000081010A0A04044
:1004D0000804040000000C028242221C00001400E8
:1004E0000000E01804C422121212A2720408F00CD8
:1004F00030404C909090889C90504C200080E09C24
:10050000829CE08000180400000000000418FE2215
:1005100022222222DC1C10101010100CF8040202FF
:10052000020204080408101010100804FE0202025F
:10053000020204F81C10101010100804FE222222DF
:100540002222221C101010101010FE222222222221
:10055000021C000000000000F804020202424244B3
:10056000C8040810101010100804FE2020202020BD
:10057000FE1C00000000001CFE1C00000000FE0C21
:100580001010100CFE804020508804021C00000057
:1005900000040810FE0000000000001C10101010E5
:1005A0001010FE0C30C000C0300CFE1C00000418FF
:1005B0000400001CFE0418608000FE1C0000000403
:1005C000081CF804020202020204F80408101010C9
:1005D00010100804FE42424242423C1C000000004F
:1005E0000000F804020202020204F80408101010CD
:1005F00014081C10FE424242C242423C1C00000051
:10060000000408101C22222242428C0C10101010F0
:10061000100C020202FE0202020000001C00000098
:10062000FE0000000000FE04081010100804061868
:1006300060800080601806000000041804000000BC
:100640000638C000C03C023CC000C03806000004B0
:1006500018040000000418040000020C9060609070
:100660000C02100C000000040C1002041820C02022
:10067000180402000000001C00000000000282427A
:10068000221A06021018141010101010FE02FC801E
:100690000638C0000000041802FE80FC201C021C6A
:1006A000200000000000000000000000000080802A
:1006B000808080808080020400001088484848F0D4
:1006C0000C101010081CFE10080808F01C08101070
:1006D000100CF0080808100C10101008F00808089A
:1006E00010FE0C101010081CF048484848700C1000
:1006F0001010100808FC0A0A001C0000F008080886
:1007000010F84C909090887CFE10080808F01C00AF
:100710000000001CFA1C00FA807CFE8040A010083B
:100720001C0000000C10FE1CF8100808F01008084F
:10073000F01C0000001C0000001CF810080808F065
:100740001C000000001CF008080808F00C10101035
:10075000100CF810080808F0FC081010100CF00835
:10076000080810F80C10101008FCF81008081C00FD
:1007700000003048484890081010100C08FE080887
:10078000001C1010F800000000F80C101010081CDD
:10079000186080008060180000041804000018E051
:1007A00000E018E000E01800041804000418040039
:1007B0000830C0C03008100C00000C101860800019
:1007C00080601800808C700C000008088868180889
:1007D000101814101010807C02007C80FEFC027C3B
:1007E00080807C004020206040402000000000000D
:1007F0000000FC0404040404FC1C10101010101C65
:100800004040000000000000000080402020202028
:100810002040800000000000000000000000C0E058
:10082000E0E0C000000000000000000000008000C8
:1008300000000000000000000000000000000000B8
:1008400000000000000000001C638000007F3E1CD0
:10085000080080631C000000000000C0F8FFFF7F5C
:100860000F7FFFFFF8C000000000008040203F2005
:1008700040800000000000000000000000000000B8
:10088000000000000000000000C020118A8A8A8A4F
:100890008A1120C00000000080F0FEFFFFFFE3E0AF
:1008A000E0E0E3FFFFFFFEF080000081422424240B
:1008B00042852820380000000000000000000000F1
:1008C0000000000000000000071820408F88888882
:1008D0008F402018070060FCFFFF3F070101010166
:1008E0000101010101073FFFFFFC60010204FC243C
:1008F00022212020202020202020202020202020F5
:1009000020204040404040700C30C000C0300C30CF
:10091000C000C0300808884828283820204080407F
:100920002010209818C0C0000000203050488F8050
:1009300000000000000000000000000000000000B7
:1009400000000000000000000000000300000000A4
:10095000000100001C6380464A5262524A4680638E
:100960001C02010001000000000008081414A2A2EB
:1009700041410000000000000000000000000000F5
:100980000000000000000000000000000000000067
:1009900000000000000000010202FE02020100004F
:1009A00000000000000000000000020205FD000041
:1009B0000000000000000000000000000000000037
:1009C0000000000000000000000000000000000027
:1009D00000000000000000020A0A2B0A0A020000C0
:1009E0000000000000000000000002020A2B0A02C2
:1009F00002000000000000000000000000000000F5
:100A00000000C208F41711241FBECFEFD8E0DEBFEC
:100A1000CDBF11E0A0E0B1E0ECEDF3E302C0059042
:100A20000D92AC34B107D9F712E0ACE4B1E001C0EB
:100A30001D92A834B107E1F71AE0C6E0DAE004C07D
:100A40002297FE010E94E819C230D107C9F70E941F
:100A5000EA150C94EC190C940000FC0184910895A3
:100A600009960E94B30B089509960E946F0F08958E
:100A700009962DE235E00E94810B0895EF920F93C5
:100A8000342FE02E260F032F0E94490A0F91EF907A
:100A90000895EF920F93562F322FE02E340F252F0B
:100AA000032F0E94490A0F91EF900895AF92BF92D1
:100AB000CF92DF92EF92FF920F931F936C01F62E6D
:100AC000B42E122FA02E0E2D0E943E054A2D4B0D46
:100AD000C6016F2D212F0E943E05C6016F2D4B2DA3
:100AE0002A2D0E9449051F0DC601612F4B2D2A2D6D
:100AF0000E9449051F910F91FF90EF90DF90CF90DA
:100B0000BF90AF9008952F923F924F925F926F9255
:100B10007F928F929F92AF92BF92CF92DF92EF928D
:100B2000FF920F931F93DF93CF9300D000D0CDB7E8
:100B3000DEB73C01C62EB42ED22EF02EAE2C62179C
:100B400069F4041710F4F42EB02EFB18C3016C2DB9
:100B50004B2D2F2D0A2D0E944905ECC0401769F43A
:100B6000261710F4D62EC22EDC18C3016C2D4B2D87
:100B70002D2D0A2D0E943E05DDC0602F70E050E053
:100B800030E02C193109CB01841B950B8217930798
:100B900034F4461B570B421753070CF466C0DC14A1
:100BA00030F48D2DDC2CC82E8F2DFB2CB82EDC18AC
:100BB000D982EF2DF0E02B2D30E02F01421A530A9D
:100BC0008D2C992488EC90E0AC01449EC001459E98
:100BD000900D549E900D1124B4010E9482196B83D4
:100BE0007C834B2DDD2419012E1A3F0A8D2D90E0B8
:100BF0006B817C81869F9001879F300D969F300D81
:100C00001124C90168EC70E00E948219162F1B0D97
:100C1000C90168EC70E00E9482198436910514F0D5
:100C20001F5F05C07FEF8D3997070CF411502D2DF4
:100C30002C0DC301622F012FEA2C0E94830548145A
:100C400059042CF0BF1418F4412F4F5F09C0281429
:100C500039042CF0FB1418F4412F415001C0412FEE
:100C6000D39489818D1510F665C00B1528F48D2D50
:100C7000DC2CC82EFB2CB02EFB18FA82ED2DF0E0F8
:100C80002C2D30E02F01421A530A8F2C992488EC26
:100C900090E0DC014A9EC0014B9E900D5A9E900D43
:100CA0001124B4010E9482196B837C834C2DFF2494
:100CB00019012E1A3F0A8F2D90E0EB81FC818E9F47
:100CC00090018F9F300D9E9F300D1124C90168EC5B
:100CD00070E00E948219162F1C0DC90168EC70E0AB
:100CE0000E9482198436910514F01F5F05C0FFEF42
:100CF0008D399F070CF411500F2D0B0DC301642F7C
:100D0000402F212FEA2C0E948305481459042CF00F
:100D1000CD1418F4412F4F5F09C0281439042CF06A
:100D2000DC1418F4412F415001C0412FF3945A8133
:100D30005F1508F60F900F900F900F90CF91DF91F5
:100D40001F910F91FF90EF90DF90CF90BF90AF90E9
:100D50009F908F907F906F905F904F903F902F90DB
:100D60000895EF920F93260F040F0E94490A0F91E6
:100D7000EF9008956F927F928F929F92AF92BF9261
:100D8000CF92DF92EF92FF920F931F93CF93DF9357
:100D9000B82EC92EFB01742ED22E602EEB012196A7
:100DA000A490FE01F4908F2D90E030E0822B932BE5
:100DB00087709070892B49F08B2D9C2D642F4D2DC1
:100DC0002A2D0F2DEE240E94B1068E010F5F1F4FBA
:100DD000EF2CE694E694E694FF248A2C99241BC019
:100DE0008B2D9C2D672D4D2D0E940E09E8010AC008
:100DF000FE016491FFEF6F1260958B2D9C2D0E9478
:100E00007D0921969E01201B2A1590F3080D191DBE
:100E1000F39438E0D30EFE1418F3DF91CF911F91B5
:100E20000F91FF90EF90DF90CF90BF90AF909F9089
:100E30008F907F906F900895EF92FF920F931F9382
:100E40007C01362F642F122F842F90E0820F911D8A
:100E50008138910514F010E8141B432F50E083E013
:100E6000440F551F8A95E1F7C7010E940E0905C07E
:100E7000C701602F0E947D0911501123C9F71F91EE
:100E80000F91FF90EF9008950F93042F40E020E81A
:100E90000E941C070F9108950F931F93CF93DF9328
:100EA000EC01062F10E0CE01612F402F0E94440775
:100EB0001F5F1830C1F7DF91CF911F910F910895F7
:100EC0002F923F924F925F926F927F928F929F925A
:100ED000AF92BF92CF92DF92EF92FF920F931F9348
:100EE000DF93CF93CDB7DEB72E970FB6F894DEBF62
:100EF0000FBECDBFD82EB92E69874A872B870C87A6
:100F00008E2C9924C401880F991F22273327281B70
:100F1000390B38872F832D5F3F4F3E872D87362F24
:100F20003E0D3E83842F8E0D89839B85960F9D8376
:100F30009E199A83F02FF40FFB83FE19FC83232E56
:100F4000382EA92EEF2E6624772444245524182DFC
:100F5000098108198D2D9B2D622D402F2C2D0E946B
:100F6000EF0AFE80F8188D2D9B2D6F2D432D2C2D13
:100F70000E94EF0A8D2D9B2D6A2D402F2C2D0E9453
:100F8000EF0A0A81080D8D2D9B2D602F432D2C2DEE
:100F90000E94EF0A3C81130F8D2D9B2D6A2D412F4E
:100FA0002C2D0E94EF0A8D2D9B2D602F4E2D2C2D68
:100FB0000E94EF0A8D2D9B2D622D412F2C2D0E941A
:100FC000EF0A8D2D9B2D6F2D4E2D2C2D0E94EF0A9B
:100FD0008D859E8597FF06C00696840D951D9E877C
:100FE0008D8711C0ED85FE853A96C3018819990950
:100FF000880F991F880F991FE80FF91FFE87ED874B
:101000000894810891080894611C711C2A943A94F0
:10101000A394E39424E030E0420E531E8614970418
:101020000CF095CF1F81FB84F10E8D2D9B2D6E81D1
:101030004A852F2D0C2D0E943E058D2D9B2D6E81F6
:101040004B812F2D0E943E053C85130F8D2D9B2D2E
:1010500069854981212F0E9449058D2D9B2D6D8128
:101060004981212F0E9449052E960FB6F894DEBFC4
:101070000FBECDBFCF91DF911F910F91FF90EF90E9
:10108000DF90CF90BF90AF909F908F907F906F90A8
:101090005F904F903F902F900895CF92EF920F93D3
:1010A0001F93E22EC02E022F10E0000F111F621BB3
:1010B000421B202F0E9460071F910F91EF90CF904D
:1010C0000895FF920F931F93CF93DF93EC01162F98
:1010D000082FFD2E0E94220B112311F460E001C0A5
:1010E0006FEFCE010E944C07802F9F2D60E040E003
:1010F0000E940E09CE010996602F7F2D0E94740B6D
:10110000DF91CF911F910F91FF900895EF92FF9281
:101110000F931F93DF93CF93CDB7DEB7C954D04061
:101120000FB6F894DEBF0FBECDBF8C010E94C7087A
:1011300081E391E0F8019183808369E0E62EF12C50
:10114000E00EF11EC7010E94730BF80112828E019E
:101150000F5F1F4FC8010E94730BD701F80189E48C
:1011600001900D928150E1F7C75BDF4F0FB6F89405
:10117000DEBF0FBECDBFCF91DF911F910F91FF90CA
:10118000EF9008958CE491E00E9486080895FC0198
:101190008BE391E0918380830895E62FF0E0E2569F
:1011A000FE4F808180FF02C02C9A01C02C9881FFE5
:1011B00002C02D9A01C02D988AB18F708AB984B16E
:1011C000807F84B940985A9A00C05B9AC89500C045
:1011D0001B99FECF5B9808951F93162F642F0E94D2
:1011E000CD0840985A988AB1806F8AB984B18F60CF
:1011F00084B98BB1912F9295907F8F70982B9BB96A
:1012000085B112951F70807F812B85B900C05B9AD4
:10121000C895C89500005B981F9108950F931F9380
:10122000CF93DF93EC01162F67FD24C0403410F5F7
:101230006B834C83062F0295069506950370642FE9
:10124000669566956695E02FF0E03396EE0FFF1FEA
:10125000EC0FFD1F8081681731F06083686BCE0151
:10126000402F0E94EC081F731064CE01612F402FA5
:101270000E94EC08DF91CF911F910F9108950F9379
:101280001F93CF93DF93EC01162F6B8162956695C8
:10129000669563700E94CD08409A5A9A00C05B9A86
:1012A000C89500C089B103B182958F700295007F07
:1012B000082B5B98112329F4CE016B814C810E948D
:1012C0000E098A8181110095802FDF91CF911F91A6
:1012D0000F910895CF93DF93EC018B8187FF02C0BC
:1012E00080E008C0CE0161E00E943F09CE0160E0CD
:1012F0000E943F09DF91CF910895BF92CF92DF9274
:10130000EF92FF920F931F93CF93DF93EC01062F81
:101310006B8167FDB4C0B62EB294B694B69493E0D8
:10132000B922FC8087E0F82209F477C0CE010E9440
:101330006A09182FCE016B2D0E94CD08409A5A9849
:101340008AB1806F8AB984B18F6084B900C05B9A1A
:10135000C02EDD24EF2CFF24C6010E2C02C0880F06
:10136000991F0A94E2F7182B8A81811110958BB18D
:10137000912F9295907F8F70982B9BB985B1129584
:101380001F70807F182B15B9C895C89500005B9811
:101390000C81802F90E00896887F803491050CF0B6
:1013A00037C0402F485F487FCE016B810E940E09F5
:1013B000CE010E946A09182FCE016B2D0E94CD0824
:1013C000409A5A988AB1806F8AB984B18F6084B983
:1013D00000C05B9A88E090E08E199F0902C0D59406
:1013E000C7948A95E2F71C298A81811110958BB1E7
:1013F000912F9295907F8F70982B9BB985B1129504
:101400001F70807F182B15B9C895C89500005B9890
:101410006B816F5FCE01402F30C0CE016B2D0E94DB
:10142000CD08409A5A988AB1806F8AB984B18F608A
:1014300084B98A818111009500C05B9A8BB1902F8D
:101440009295907F8F70982B9BB985B102950F7004
:10145000807F802B85B9C895C89500005B986B810B
:101460006F5F6B83862F82958695869583708B152B
:1014700031F067FD04C0CE014C810E940E09DF915E
:10148000CF911F910F91FF90EF90DF90CF90BF9081
:1014900008957F928F929F92AF92BF92CF92DF92E8
:1014A000EF92FF920F931F93CF93DF93EC01962E51
:1014B0007E2C81E0C82EC41AC00EA82EA61AA20E39
:1014C000542F5770D42ED51AEC2CFF24652F70E0C2
:1014D00028E030E0C901861B970BE816F9065CF49A
:1014E0002E193F098FEF90E002C0959587952A95B8
:1014F000E2F71C2D03C018E0151B8FEF90E002C02F
:10150000880F991F6A95E2F7B82ECE01692D4D2DEF
:101510000E940E0900E08B2C80940FC0CE010E9427
:101520006A099FEF791619F4682F6B2902C0682F9A
:101530006821CE010E947D090F5F0A1578F311C062
:1015400088E0D80ECE01692D4D2D0E940E0900E0D5
:1015500005C0CE01672D0E947D090F5F0A15C8F3F3
:10156000185F212F30E0C90107968E159F0544F3BF
:101570001C1538F5E21AF30A8FEF90E002C0880FCD
:10158000991FEA94E2F7082F009598E0D90ECE0152
:10159000692D4D2D0E940E0910E0F02EF0940FC021
:1015A000CE010E946A099FEF791619F4682F602B0B
:1015B00002C0682F6F21CE010E947D091F5F1A159E
:1015C00078F3DF91CF911F910F91FF90EF90DF9013
:1015D000CF90BF90AF909F908F907F9008950F9382
:1015E0001F93CF93DF93EC01142F022F487F0E94AB
:1015F0000E09CE010E946A09482F212F30E00F3FCB
:1016000061F42770307081E090E002C0880F991F6C
:101610002A95E2F7642F682B0CC02770307081E0A8
:1016200090E002C0880F991F2A95E2F7682F609515
:101630006423CE010E947D09DF91CF911F910F910C
:1016400008950895FF920F931F938C0181E080937A
:101650009E0182E080939F01389A529A539A5B9838
:10166000249A2C98259A2D98399A40985A98F801DE
:10167000138214826283419862E070E080E090E01F
:101680000E944716419A65E070E080E090E00E9479
:1016900047166AE070E080E090E00E944716FF2461
:1016A000FA94F801F682C8016FE340E00E94EC086A
:1016B000C80160EC40E00E94EC086AE070E080E065
:1016C00090E00E944716F801F086C8016FE341E000
:1016D0000E94EC08C80160EC41E00E94EC081F91F8
:1016E0000F91FF9008950895FC0171836083178224
:1016F00010868FE781878FE3828781E08387148656
:101700000895FC017683658333832283448308959F
:10171000FC01862F942F6781680F4085490F8081D7
:1017200091810E940E090895EF920F93CF93DF935A
:10173000EC01E881F9816F81488529850A858C81D2
:101740008F3F11F03FEF01C030E0CF01E32E0E9448
:10175000490ACE0160E040E00E94880BDF91CF9102
:101760000F91EF900895BF92CF92DF92EF92FF9288
:101770000F931F938C01E62EB42EDC01CD90DC90EC
:10178000119715968D919C9116971296ED91FC915B
:10179000139702960995F82EF394FE9CF02C1124D1
:1017A000F8018781F80E858196810280F381E02D12
:1017B00003960995482F4F5F4B9D402D1124D8016A
:1017C00018968C91480FC6016F2D0E940E091F912B
:1017D0000F91FF90EF90DF90CF90BF900895CF9240
:1017E000EF920F931F93CF93DF93EC01162F3E2DB3
:1017F000653010F010683EC0401750F42E1540F4CC
:1018000047FD06C0203420F407FD02C0E7FE04C0F7
:1018100040E020E00FE73FE38C85181701F1812FAE
:1018200090E0DC01AA0FBB1FA80FB91FCD01880FE4
:10183000991F880F991F8C0F9D1FFC0145872687D4
:10184000FC010787308B1196AA0FBB1FAA0FBB1F85
:10185000AC0FBD1F1D96CC92478B208F0BC04F83C2
:10186000288709873A87CB8688819981642F422F00
:101870000E940E09812FDF91CF911F910F91EF9060
:10188000CF9008951F93CF93DF93EC01162FEC8533
:10189000653008F068C06E1709F465C08E2F90E0BF
:1018A000FC01EE0FFF1FE80FF91FEE0FFF1FEE0FF9
:1018B000FF1FEC0FFD1F3D96DE01179625E00D90F2
:1018C00001922150E1F7FC01EE0FFF1FE80FF91F15
:1018D000EE0FFF1FEE0FFF1FEC0FFD1F8A819B8194
:1018E000958B848B8C81868B8D819E81938B828B53
:1018F000A881B98113968C91878BA881B9811496A0
:101900008C91808F812F90E0FC01EE0FFF1FE80F7C
:10191000F91FEE0FFF1FEE0FFF1FEC0FFD1FDE0183
:1019200017963D9625E001900D922150E1F7FC01BC
:10193000EE0FFF1FE80FF91FEE0FFF1FEE0FFF1F47
:10194000EC0FFD1F848995899B838A8386898C830C
:10195000828993899E838D83888199816789408D4F
:101960000E940E091C87DF91CF911F9108952F923D
:101970003F924F925F926F927F928F929F92AF921F
:10198000BF92CF92DF92EF92FF920F931F93DF935C
:10199000CF9300D000D00F92CDB7DEB75C01542EAC
:1019A000222ED02E7E2C3C2C202F30E0842F90E055
:1019B0008E0D911D28173907F4F0277030702F5FB6
:1019C0003F4F81E090E002C0880F991F2A95E2F70F
:1019D000282F21952983F62E302F387F3A83402EE9
:1019E0004E18842D887F8B83B1E08B2E912C66243A
:1019F00063946E18C4C0F50180819181222DEC2C76
:101A00000E94490ABFC0F501808191816F2D4A81F2
:101A10000E940E09F501808191810E946A09098165
:101A20000823142DF501808191816F2D4B810E9437
:101A30000E09F501808191810E946A09E82ECD2C62
:101A40003FC08E2D90E0212F277002C0959587957D
:101A50002A95E2F780FF09C08C2D8770940102C09F
:101A6000220F331F8A95E2F7022B8C2D90E08770AE
:101A70009070892B79F44C2D487FF50180819181FC
:101A80006F2D0E940E09F50180819181602F0E94C7
:101A90007D0900E0CA941123B1F01150812F8770A5
:101AA000873071F4412F487FF501808191816F2D3E
:101AB0000E940E09F501808191810E946A09E82E39
:101AC000151508F0BECF1C2DE72C31C0812F90E0FA
:101AD000FFEF3F1651F487709070940102C0220FFF
:101AE000331F8A95E2F7022B0BC087709070F401C8
:101AF00002C0EE0FFF1F8A95E2F7CF018095082301
:101B0000812F90E087709070892B79F4412F487F66
:101B1000F501808191816F2D0E940E09F501808170
:101B20009181602F0E947D0900E01150EA94EE201F
:101B300069F6462D4C0D242F30E0277030703D8320
:101B40002C83232BD9F0487FF501808191816F2D63
:101B50000E940E09F501808191810E946A09B401F9
:101B60000C8002C0660F771F0A94E2F76150682369
:101B7000602BF501808191810E947D09F3942F14DF
:101B800008F041CF0F900F900F900F900F90CF91D2
:101B9000DF911F910F91FF90EF90DF90CF90BF905A
:101BA000AF909F908F907F906F905F904F903F90FD
:101BB0002F9008952F923F924F925F926F927F9253
:101BC0008F929F92AF92BF92CF92DF92EF92FF924D
:101BD0000F931F93DF93CF9300D0CDB7DEB75C0197
:101BE000D42E322E602E7E2C4C2C50E09A012E0DDD
:101BF000311D802F90E082179307CCF04770507012
:101C000081E090E002C0880F991F4A95E2F7282FE3
:101C100021502983F62E3D2D387F3A835E2C5D0CB2
:101C200008EF202E252011E0812E912CC2C0F50155
:101C3000808191814D2D232DEC2C0E94490ABCC03E
:101C4000F501808191816F2D4A810E940E09F50175
:101C5000808191810E946A09C980C822052DF50101
:101C6000808191816F2D422D0E940E09F5018081A6
:101C700091810E946A09E82E1D2D3FC08E2D90E0B3
:101C8000202F277002C0959587952A95E2F780FF4F
:101C900009C0812F8770940102C0220F331F8A95DB
:101CA000E2F7C22A0F5F802F90E087709070892B37
:101CB00081F4003470F4402F487FF50180819181D8
:101CC0006F2D0E940E09F501808191810E946A09A1
:101CD000E82E812F8770873079F4412F487FF501F6
:101CE000808191816F2D0E940E09F5018081918183
:101CF0006C2D0E947D09CC241F5F601608F0BECFBA
:101D0000E12E072D2FC0812F90E0FFEF4F1651F4E9
:101D100087709070940102C0220F331F8A95E2F7FA
:101D2000C22A0BC087709070F40102C0EE0FFF1F33
:101D30008A95E2F7CF018095C822812F877087307E
:101D400079F4412F487FF501808191816F2D0E94A8
:101D50000E09F501808191816C2D0E947D09CC24B2
:101D60001F5F0150002379F64E2D470D042F10E020
:101D70000770107001151105D9F04150487FF50129
:101D8000808191816F2D0E940E09F50180819181E2
:101D90000E946A09B40102C0660F771F0A95E2F734
:101DA000619568236C29F501808191810E947D09EC
:101DB000F3943F1408F044CF0F900F90CF91DF9130
:101DC0001F910F91FF90EF90DF90CF90BF90AF9059
:101DD0009F908F907F906F905F904F903F902F904B
:101DE0000895CF92EF920F931F93CF93DF93EC015F
:101DF0006A3009F06DC0E881F981E380C4808D818B
:101E00009E81EA81FB8103960995182F2985E216A8
:101E100080F4488159818C818F3F11F03FEF01C0E0
:101E200030E0012F0C0DCA016E2D4C2DE32E0E94C7
:101E3000490A8B85212F30E06C2D70E087FD24C08E
:101E4000F901EE0FFF1F0A856E0F7F1F802F90E0B4
:101E500068177907BCF06F81488529858C818F3F91
:101E600011F03FEF01C030E0C394C01ACE0ECE0196
:101E7000EC2CC32E0E94DA0D4A85411B8881998182
:101E80006F8124C0C39407C04885240F311D2617D5
:101E900037073CF41095C10E888199816F814C2DD4
:101EA00015C06F8129850A858C818F3F11F03FEF26
:101EB00001C030E0C394C41AC10ECE01EC2CC32E75
:101EC0000E94B70C888199816F8148850E940E0914
:101ED000DF91CF911F910F91EF90CF9008952F92A6
:101EE0003F924F925F926F927F928F929F92AF92AA
:101EF000BF92CF92DF92EF92FF920F931F93DF93E7
:101F0000CF93CDB7DEB767970FB6F894DEBF0FBE9D
:101F1000CDBF8C01F62EDC011296ED91FC9113974A
:101F2000309709F424C2BFE1B6171CF00E94F10EED
:101F30001BC2DC0115968D919C911697039609950D
:101F40008C83F801858196810280F381E02D0496CF
:101F50000995E82ED80115968D919C9116971296A9
:101F6000ED91FC91139705960995A82ED801ED9156
:101F7000FC91B381BB8324812A832F2D332727FD36
:101F800030958E2D90E0281739070CF4F0C18A0D9A
:101F9000911D281739070CF0EAC15C81452F50E0EC
:101FA0005E834D83CA01079623E0959587952A9510
:101FB000E1F7B82ECF2CCE18D8011296ED91FC91F6
:101FC000139715968D919C9116970995882309F082
:101FD000EAC1F801858196810280F381E02D0196A6
:101FE0000995882309F0DFC1D80115968D919C9140
:101FF00016971296ED91FC91139702960995382E3B
:102000002B2D30E08C2D992787FD9095F901E89FC5
:102010009001E99F300DF89F300D1124832D90E041
:10202000289F6001299FD00C389FD00C112426E0F6
:1020300030E0C20ED31E2EC00696820F931F099564
:10204000E80EF11CD3948D2D90E0D8011296ED91FD
:10205000FC91139715962D913C911697881599052B
:102060005CF38B2D90E0AC01E49EC001E59E900DE9
:10207000F49E900D1124CA2CDD2466E070E0C60E9B
:10208000D71EC80ED91E860E971EC901880D991D30
:102090000995382E7B81272F30E02F5F3F4F230D8E
:1020A000311DD80119968C9190E0281739075CF002
:1020B000C8016AE00E946F0FD801ED91FC91B381D5
:1020C000BB8324812A833C813F5F398377248D81C0
:1020D0009E818770907048E050E0481B590B598BE7
:1020E000488BB601630D711D7B8B6A8B832F90E04B
:1020F0009D8B8C8B2AC16A80670C462D487F6B8133
:102100000E940E09272D269526952695239D202D84
:10211000112430E029014C0C5D1C2224472D50E095
:10212000CA01887FAD81BE81A81BB90BBA87A98778
:10213000A62CBB24A42AB52AB7E0AB22BB24E62DEB
:10214000E770EB876A897B89620F731F7D876C87D5
:102150008C899D89841B950B9F878E87A5C09C8148
:10216000791610F0FF241CC0D80115968D919C9112
:1021700016971296ED91FC911397840D951D099574
:10218000F82EBC81B93060F0E985FA85389744F4BF
:1021900090E0088802C0959587950A94E2F7F82E9A
:1021A000D80114968C91882309F4F094A114B104F9
:1021B00049F4EE85FF8538972CF0D8018D919C91DC
:1021C0006F2D6CC0F801808191810E946A09982E60
:1021D000EB84872C2C853D85220D311D38872F837C
:1021E000482D50E05F8B4E8B9A01277030708F2DF9
:1021F00090E0022E02C0959587950A94E2F780FF41
:102200000AC081E090E00E2C02C0880F991F0A944A
:10221000E2F7982A0AC081E090E00E2C02C0880FF5
:10222000991F0A94E2F7809598222730310549F5E5
:10223000D80115968D919C9116971296ED91FC916F
:1022400013972F813885820F931F0995F82E3C81B3
:10225000393088F08D819E814E895F89841B950B72
:1022600008974CF48F2D90E0088802C095958795CB
:102270000A94E2F7F82ED80114968C91882309F479
:10228000F094E394B8E0EB1629F08394E9818E167C
:1022900008F4A6CFD8018D919C91692D0E947D09EB
:1022A00023940894411C511C231408F458CFE62CA5
:1022B000FF24B7E0EB22FF24E114F10431F48C8910
:1022C0009D898719910908977CF5F8018081918192
:1022D0000E946A09282FE114F10411F460E009C09A
:1022E00081E090E002C0880F991FEA94E2F7682F1E
:1022F00061508C899D89871991098830910554F422
:1023000041E050E002C0440F551F8A95E2F7CA0130
:102310008195682BD80114968C91882319F46095C7
:10232000622B09C0622307C0F8018481882311F061
:1023300060E001C06FEFD8018D919C910E947D09F2
:10234000B7E06B2288E08619780EF80180819181D0
:10235000F9817F1608F4CFCE33942B81230D2B8384
:10236000622F4A810E940E0921E030E002C020E085
:1023700030E0C90167960FB6F894DEBF0FBECDBF3F
:10238000CF91DF911F910F91FF90EF90DF90CF9051
:10239000BF90AF909F908F907F906F905F904F9085
:1023A0003F902F900895EE24FF24DD248C2C992457
:1023B00087FC909448CECF93DF93EC018CE491E0BE
:1023C00068E670E04FEF0E943805219713C08CE457
:1023D00091E060E041E00E943005CE018F5C682F03
:1023E0008CE491E00E946D1868EE73E080E090E06C
:1023F0000E94471621979FEFCE3FD90741F7DF9103
:10240000CF910895CF92DF92EF92FF921F9310E445
:102410006C01EE24D7FCE094FE2C8CE491E0612F5B
:102420000E946D18C701B6010E9447161F5F1F3733
:10243000A1F71F91FF90EF90DF90CF900895CF927A
:10244000DF92EF92FF920F931F938CE491E060E094
:102450000E944C078CE491E068E670E040E00E9446
:10246000380510E0AFE1FA2ECF2CC11A8CE491E0D0
:10247000612F412F2C2D0C2DEE24EA940E94B106E1
:1024800068E270E080E090E00E9447168CE491E002
:10249000612F412F2C2DEE240E94B1061F5F1032B8
:1024A00019F7FFE1CF2EEFE1DE2EFD2CFC188CE4B6
:1024B00091E06C2D4C2D2F2D0F2DEE24EA940E94CF
:1024C000B10668E270E080E090E00E9447168CE47C
:1024D00091E06C2D4C2D2F2DEE240E94B106CA9454
:1024E00021F710E08CE491E06EE472E0412F20E0EF
:1024F0000FEF0E94BA0662E370E080E090E00E9475
:1025000047161F5F183071F78CE491E060E00E947D
:102510004C0710E38CE491E06EE472E0412F20E080
:1025200000E00E94BA0662E370E080E090E00E9462
:1025300047161F5F103471F785E591E060E00E9457
:10254000420C85E591E060E040E020E00FE77FE3AA
:10255000E72ECC24C3940E94EF0B8CE491E060E55D
:1025600073E040E00E943805FF2426C08CE491E02F
:1025700060E0412F28E00FEF0E943E05185F103405
:10258000A9F78CE491E06F2D4F2D0E940E098CE489
:1025900091E060E071E00E94751868EC70E080E006
:1025A00090E00E9447168CE491E060E00E944C07A6
:1025B000F3948FE0F81611F010E0D8CF8CE491E09E
:1025C00060E00E944C0785E591E060E00E94420CCB
:1025D00085E591E060E040E020E00FE35FE1E52E7B
:1025E000CC24C3940E94EF0B8CE491E068E670E089
:1025F00040E00E9438058CE491E060E040E00E94F9
:10260000300585E591E061E00E94420C85E591E0AE
:1026100061E040E420E00FE7CC24CA940E94EF0B75
:102620008CE491E068E670E04FEF0E9438058CE49E
:1026300091E060E040E00E94300585E591E062E0D5
:102640000E94420C85E591E062E040E020E23FE339
:10265000E32ECC24C3940E94EF0B8CE491E060E560
:1026600073E04FEF0E9438058CE491E060E040E0B9
:102670000E94300510E085E591E0612F0E94420C38
:1026800080E590E00E9402121F5F1330A1F700E284
:1026900016C085E591E0612F0E94420C8CE491E028
:1026A000602F0E946D181F5F133099F762E370E08E
:1026B00080E090E00E9447160F5F0F3711F010E0A6
:1026C000E8CF10E085E591E0612F0E94420C85E59E
:1026D00091E00E94940B1F5F1330A1F700E010E01F
:1026E0001FC085E591E06F2D0E94420C8CE491E0C3
:1026F0006BE071E00E9475188CE491E0B8010E94D3
:10270000461964E670E080E090E00E944716F3947A
:1027100083E0F81631F70F5F1F4F0F30110511F0EE
:10272000FF24DFCF85E591E061E00E94420C85E562
:1027300091E00E94940B10E38CE491E06EE472E06F
:10274000412F20E000E00E94BA0662E370E080E0E2
:1027500090E00E9447161F5F103471F710E285E584
:1027600091E060E00E94420C8CE491E0612F0E94B5
:102770006D1885E591E062E00E94420C8CE491E0E6
:10278000612F0E946D1862E370E080E090E00E948B
:1027900047161F5F1F3719F760ED77E080E090E084
:1027A0000E9447161F910F91FF90EF90DF90CF90FE
:1027B0000895EF920F93362F542F90E0877090700A
:1027C00083309105A9F1843091054CF48130910555
:1027D000D9F08230910514F5892B71F05DC08530F8
:1027E0009105C1F1853091056CF186309105E1F1DB
:1027F000079709F051C042C0042F085F8CE491E0B4
:102800005850452F232F44C0262F2350042F095FF3
:102810008CE491E03D5F632F575039C0262F26503E
:10282000042F0A5F8CE491E03A5F632F56502FC06B
:10283000262F2750042F0D5F8CE491E0395F632F22
:10284000535025C0262F28508CE491E0385F632F29
:10285000052F1EC0262F2750042F03508CE491E033
:10286000395F632F5D5F13C0262F2650042F06505B
:102870008CE491E03A5F632F5A5F09C0262F235002
:10288000042F07508CE491E03D5F632F595F452F83
:10289000EE24EA940E9483050F91EF900895CF9261
:1028A000EF920F938CE491E060E040E00E943005ED
:1028B0008CE491E062E171E00E9475188CE491E093
:1028C00062E440E02DE30FE335E0E32ECC24CA942C
:1028D0000E94600785E591E061E00E94420C8CE473
:1028E00091E068E670E04FEF0E94380585E591E0E1
:1028F00061E045E423E00BE7BBE3EB2ECC24C3947B
:102900000E94EF0B8CE491E060E040E00E94300513
:1029100000E28CE491E0602F0E94651862E370E0B1
:1029200080E090E00E9447160F5F003891F785E540
:1029300091E060E00E94420C0F91EF90CF900895DB
:10294000AF92BF92CF92EF920F931F93ECE4AE2E13
:10295000E1E0BE2EC50160E078E040E220E00FEF4C
:102960000E94BA0683E090E00E94DB11C50160E09E
:102970000E944C07C50160E573E04FEF0E943805E7
:10298000C5016AE042E00E940E09C5016CE171E0F8
:102990000E947518C50143E050E060E070E02AE055
:1029A00030E00E944E19C50168E040E027E702E1EF
:1029B00075E0E72ECC24CA940E94600783E090E083
:1029C0000E94DB110E941F128501075F1F4FC80183
:1029D00060E00E94420CC50168E670E04FEF0E9483
:1029E0003805C80160E040E020E00FE75FE3E52E36
:1029F000CC24C3940E94EF0BC50160E00E944C07F9
:102A00000E944F1483E090E00E94DB111F910F9110
:102A1000EF90CF90BF90AF900895CF92EF92FF923A
:102A20000F931F931092A7011092A6010E943916CE
:102A30006093A0017093A1018093A2019093A301E0
:102A400050C08CE491E060E040E020E40FE3EE242D
:102A5000EA940E9456058CE491E062E440E02DE3A4
:102A6000F5E0EF2ECC24CA940E94600710E08CE4BD
:102A700091E061E041E02FE3012FEE24EA940E940F
:102A800083051C5F103499F78CE491E060E24FE11C
:102A90002EE10FEF0E944D088CE491E068E548E2DA
:102AA00020E100E1EE240E94B1068091A401909102
:102AB000A50101969093A5018093A401019760E67A
:102AC00040E30E94D9138CE491E060E240E30E946D
:102AD0000E096091A6017091A7018CE491E00E941B
:102AE00019198091A6019091A70101969093A701D1
:102AF0008093A60101970A9708F4A3CF0E94391684
:102B00007B018C018091A0019091A101A091A20173
:102B1000B091A301E81AF90A0A0B1B0B8CE491E0AF
:102B200060E00E944C078CE491E064E448E10E947C
:102B30000E098CE491E066E271E00E94751860E194
:102B400077E280E090E0A80197010E9495198CE45B
:102B500091E0B9010E9446198CE491E06BE271E0CA
:102B60000E94751860E177E280E090E0A80197018B
:102B70000E9495192AE030E040E050E00E9495194B
:102B80008CE491E0B9010E9446191F910F91FF90CA
:102B9000EF90CF9008950F931F9385E392E040E864
:102BA00055E260E070E00E94E81664EF71E080E0BA
:102BB00090E00E9447160CE411E0C80160E00E941A
:102BC00061080E94A014C80160E00E944C071F9198
:102BD0000F9108950E9471160E94CB150E940D1549
:102BE000FDCF1F920F920FB60F9211242F933F9398
:102BF0008F939F93AF93BF938091AC019091AD0160
:102C0000A091AE01B091AF013091B0010196A11D2C
:102C1000B11D232F2D5F2D3720F02D570196A11DBB
:102C2000B11D2093B0018093AC019093AD01A093AE
:102C3000AE01B093AF018091A8019091A901A0913C
:102C4000AA01B091AB010196A11DB11D8093A8010D
:102C50009093A901A093AA01B093AB01BF91AF914A
:102C60009F918F913F912F910F900FBE0F901F90CA
:102C700018958FB7F8942091AC013091AD01409137
:102C8000AE015091AF018FBFB901CA010895EF9213
:102C9000FF920F931F937B018C018FB7F8944091A3
:102CA000AC015091AD016091AE017091AF018FBF49
:102CB0002FB7F8948091AC019091AD01A091AE0135
:102CC000B091AF012FBF841B950BA60BB70BE81675
:102CD000F9060A071B0760F71F910F91FF90EF900D
:102CE0000895789484B5826084BD84B5816084BD84
:102CF00085B5826085BD85B5816085BDEEE6F0E075
:102D0000808181608083E1E8F0E08081826080835F
:102D1000808181608083E0E8F0E080818160808351
:102D2000E1EBF0E0808184608083E0EBF0E0808183
:102D300081608083EAE7F0E0808184608083808125
:102D400082608083808181608083808180688083CD
:102D50001092C10008951F920F920FB60F92112486
:102D60002F933F934F935F936F937F938F939F9393
:102D7000AF93BF93EF93FF934091C600E091310270
:102D8000F0913202CF01019660E870E00E94821952
:102D90009C0180913302909134022817390739F051
:102DA000EF54FE4F40833093320220933102FF9163
:102DB000EF91BF91AF919F918F917F916F915F91B3
:102DC0004F913F912F910F900FBE0F901F9018952C
:102DD0005F926F927F928F929F92AF92BF92CF92AB
:102DE000DF92EF92FF920F931F93CF93DF93EC014B
:102DF0003A014B01413482E458078FE0680780E0D4
:102E000078070CF07FC060E874E88EE190E0A401E0
:102E100093010E94B7192150304040405040CA01F0
:102E2000B90122E030E040E050E00E94B7195901BA
:102E30006A01A6019501209530954095509594E042
:102E4000220F331F441F551F9A95D1F760E074E29B
:102E500084EF90E00E94B719CA01B9012FEF30E06A
:102E600040E050E00E946319A40193010E94B71949
:102E7000C90181509F4F181619061CF4522E5A94FE
:102E800003C055245394521A60E079E08DE390E03A
:102E9000A40193010E94B719215030404040504096
:102EA000CA01B90122E030E040E050E00E94B719C9
:102EB000209530954095509583E0220F331F441F95
:102EC000551F8A95D1F760E074E284EF90E00E948C
:102ED000B719CA01B9012FEF30E040E050E00E947D
:102EE0006319A40193010E94B719C90181509F4F32
:102EF000181619061CF4822F815002C081E0821B33
:102F0000851500F5E885F98581E090E00A8802C022
:102F1000880F991F0A94E2F7808360E079E08DE3DF
:102F200090E0A40193010E94B71921503040404025
:102F30005040CA01B90122E030E040E050E00E9478
:102F4000B71904C0E885F98510829501EC81FD81EF
:102F50003083EE81FF812083EA85FB85208141E07B
:102F600050E0CA010E8402C0880F991F0A94E2F74C
:102F7000282B2083EA85FB852081CA010F8402C0AB
:102F8000880F991F0A94E2F7282B2083EA85FB8596
:102F90008081088802C0440F551F0A94E2F7842BF1
:102FA0008083DF91CF911F910F91FF90EF90DF9081
:102FB000CF90BF90AF909F908F907F906F905F90D9
:102FC0000895FC01A085B18521898C9190E0022EA5
:102FD00002C0959587950A94E2F780FFF6CF0484A6
:102FE000F585E02D6083089585E491E090933602A5
:102FF0008093350281EB91E0909338028093370201
:1030000085EC90E090933A028093390284EC90E052
:1030100090933C0280933B0280EC90E090933E02C0
:1030200080933D0281EC90E09093400280933F02B8
:1030300086EC90E0909342028093410284E080937A
:10304000430283E08093440287E08093450285E059
:103050008093460281E08093470208950F931F9367
:10306000CF93DF938C01EB0109C02196D801ED913C
:10307000FC910190F081E02DC801099568816623DB
:10308000A1F7DF91CF911F910F910895EF92FF92D9
:103090000F931F93CF93DF938C017B01EA010CC048
:1030A000D7016D917D01D801ED91FC910190F081E6
:1030B000E02DC80109952197209791F7DF91CF91D5
:1030C0001F910F91FF90EF900895DC01ED91FC911D
:1030D0000190F081E02D09950895DC01ED91FC91BE
:1030E0000190F081E02D09950895DC01ED91FC91AE
:1030F0000280F381E02D099508952F923F924F921F
:103100005F926F927F928F929F92AF92BF92CF9277
:10311000DF92EF92FF920F931F93DF93CF93CDB780
:10312000DEB7A0970FB6F894DEBF0FBECDBF1C016F
:103130006A017B01411551056105710549F4DC0106
:10314000ED91FC910190F081E02D60E3099554C070
:10315000882499245401422E55246624772401E0C2
:1031600010E00C0F1D1F080D191DC701B601A301AA
:1031700092010E949519F80160830894811C911CAA
:10318000A11CB11CC701B601A30192010E949519AF
:10319000C901DA016C017D01C114D104E104F1041B
:1031A000F1F681E0E82EF12CEC0EFD1EE80CF91C86
:1031B0003E010894611C711CD501C4010197A1094D
:1031C000B1096C01C818D90814C0F601EE0DFF1D35
:1031D00060816A3010F4605D01C0695CD101ED91DD
:1031E000FC910190F081E02DC10109950894E1085E
:1031F000F1086E147F0449F7A0960FB6F894DEBF6D
:103200000FBECDBFCF91DF911F910F91FF90EF9037
:10321000DF90CF90BF90AF909F908F907F906F90F6
:103220005F904F903F902F9008952AE00E947D1864
:103230000895AB0160E070E00E9415190895EF92C7
:10324000FF920F931F93CF93DF93EC017A018B01D1
:1032500077FF0FC0E881F9810190F081E02D6DE2E8
:10326000099510950095F094E094E11CF11C011D66
:10327000111DCE01B801A7012AE00E947D18DF913F
:10328000CF911F910F91FF90EF900895AB016627AA
:1032900057FD6095762F0E941F190895DC012115B6
:1032A000310541F4ED91FC910190F081E02D642F06
:1032B000099508952A30310519F40E941F190895BF
:1032C0000E947D180895629FD001739FF001829F34
:1032D000E00DF11D649FE00DF11D929FF00D839FA5
:1032E000F00D749FF00D659FF00D9927729FB00D42
:1032F000E11DF91F639FB00DE11DF91FBD01CF0155
:103300001124089597FB092E07260AD077FD04D0D3
:1033100049D006D000201AF4709561957F4F08952A
:10332000F6F7909581959F4F0895A1E21A2EAA1B5A
:10333000BB1BFD010DC0AA1FBB1FEE1FFF1FA21765
:10334000B307E407F50720F0A21BB30BE40BF50B62
:10335000661F771F881F991F1A9469F760957095EB
:10336000809590959B01AC01BD01CF01089597FB1D
:10337000092E05260ED057FD04D0D7DF0AD0001C39
:1033800038F450954095309521953F4F4F4F5F4F02
:103390000895F6F790958095709561957F4F8F4FC2
:1033A0009F4F0895AA1BBB1B51E107C0AA1FBB1F5B
:1033B000A617B70710F0A61BB70B881F991F5A95C1
:1033C000A9F780959095BC01CD010895EE0FFF1FE0
:0C33D0000590F491E02D0994F894FFCFD3
:1033DC004041424344464748494A000A6C696E657D
:1033EC00200035783720666F6E743A00474C4344A2
:1033FC002076657220004650533D002E00000000E0
:10340C000034052E18461800000000210B2E18461B
:0C341C001800000000E1172E18461800F0
:00000001FF
